{
  "address": "0x28b69F47782ce14936d31461A6378D011460415a",
  "abi": [
    {
      "inputs": [
        {
          "internalType": "address",
          "name": "entryPoint",
          "type": "address"
        }
      ],
      "stateMutability": "nonpayable",
      "type": "constructor"
    },
    {
      "inputs": [],
      "name": "ExecutionFailed",
      "type": "error"
    },
    {
      "inputs": [],
      "name": "InvalidCaller",
      "type": "error"
    },
    {
      "inputs": [],
      "name": "InvalidEntryPoint",
      "type": "error"
    },
    {
      "inputs": [
        {
          "internalType": "address",
          "name": "sessionKey",
          "type": "address"
        }
      ],
      "name": "InvalidSessionInterval",
      "type": "error"
    },
    {
      "inputs": [
        {
          "internalType": "address",
          "name": "sessionKey",
          "type": "address"
        }
      ],
      "name": "InvalidSessionKey",
      "type": "error"
    },
    {
      "inputs": [],
      "name": "InvalidSessionKeyCaller",
      "type": "error"
    },
    {
      "inputs": [
        {
          "internalType": "address",
          "name": "sessionKey",
          "type": "address"
        }
      ],
      "name": "InvalidSignature",
      "type": "error"
    },
    {
      "inputs": [
        {
          "internalType": "address",
          "name": "sessionKey",
          "type": "address"
        }
      ],
      "name": "RevokedSession",
      "type": "error"
    },
    {
      "inputs": [],
      "name": "SessionKeyExecutionFailed",
      "type": "error"
    },
    {
      "inputs": [],
      "name": "UnsupportedEntryPoint",
      "type": "error"
    },
    {
      "inputs": [
        {
          "internalType": "bytes4",
          "name": "selector",
          "type": "bytes4"
        }
      ],
      "name": "UnsupportedExecutionFunction",
      "type": "error"
    },
    {
      "anonymous": false,
      "inputs": [
        {
          "indexed": true,
          "internalType": "address",
          "name": "sessionKey",
          "type": "address"
        },
        {
          "indexed": true,
          "internalType": "address",
          "name": "account",
          "type": "address"
        }
      ],
      "name": "SessionKeyAdded",
      "type": "event"
    },
    {
      "anonymous": false,
      "inputs": [
        {
          "indexed": true,
          "internalType": "address",
          "name": "sessionKey",
          "type": "address"
        },
        {
          "indexed": true,
          "internalType": "address",
          "name": "account",
          "type": "address"
        }
      ],
      "name": "SessionKeyRevoked",
      "type": "event"
    },
    {
      "anonymous": false,
      "inputs": [
        {
          "indexed": true,
          "internalType": "address",
          "name": "sessionKey",
          "type": "address"
        },
        {
          "indexed": true,
          "internalType": "address",
          "name": "destination",
          "type": "address"
        }
      ],
      "name": "WhitelistedDestinationAdded",
      "type": "event"
    },
    {
      "anonymous": false,
      "inputs": [
        {
          "indexed": true,
          "internalType": "address",
          "name": "sessionKey",
          "type": "address"
        },
        {
          "indexed": true,
          "internalType": "address",
          "name": "destination",
          "type": "address"
        }
      ],
      "name": "WhitelistedDestinationRemoved",
      "type": "event"
    },
    {
      "inputs": [],
      "name": "SUPPORTED_ENTRYPOINT",
      "outputs": [
        {
          "internalType": "address",
          "name": "",
          "type": "address"
        }
      ],
      "stateMutability": "view",
      "type": "function"
    },
    {
      "inputs": [
        {
          "internalType": "address",
          "name": "sessionKey",
          "type": "address"
        },
        {
          "internalType": "uint48",
          "name": "validAfter",
          "type": "uint48"
        },
        {
          "internalType": "uint48",
          "name": "validUntil",
          "type": "uint48"
        },
        {
          "internalType": "address[]",
          "name": "destinations",
          "type": "address[]"
        }
      ],
      "name": "addSessionKey",
      "outputs": [],
      "stateMutability": "nonpayable",
      "type": "function"
    },
    {
      "inputs": [
        {
          "internalType": "address",
          "name": "sessionKey",
          "type": "address"
        },
        {
          "internalType": "address",
          "name": "destination",
          "type": "address"
        }
      ],
      "name": "addWhitelistDestination",
      "outputs": [],
      "stateMutability": "nonpayable",
      "type": "function"
    },
    {
      "inputs": [],
      "name": "domainSeparator",
      "outputs": [
        {
          "internalType": "bytes32",
          "name": "domainSeparatorHash",
          "type": "bytes32"
        }
      ],
      "stateMutability": "view",
      "type": "function"
    },
    {
      "inputs": [
        {
          "internalType": "contract Safe",
          "name": "safe",
          "type": "address"
        },
        {
          "internalType": "bytes",
          "name": "message",
          "type": "bytes"
        }
      ],
      "name": "encodeMessageDataForSafe",
      "outputs": [
        {
          "internalType": "bytes",
          "name": "",
          "type": "bytes"
        }
      ],
      "stateMutability": "view",
      "type": "function"
    },
    {
      "inputs": [
        {
          "internalType": "address",
          "name": "to",
          "type": "address"
        },
        {
          "internalType": "uint256",
          "name": "value",
          "type": "uint256"
        },
        {
          "internalType": "bytes",
          "name": "data",
          "type": "bytes"
        },
        {
          "internalType": "uint8",
          "name": "operation",
          "type": "uint8"
        }
      ],
      "name": "executeUserOp",
      "outputs": [],
      "stateMutability": "nonpayable",
      "type": "function"
    },
    {
      "inputs": [
        {
          "internalType": "address",
          "name": "to",
          "type": "address"
        },
        {
          "internalType": "uint256",
          "name": "value",
          "type": "uint256"
        },
        {
          "internalType": "bytes",
          "name": "data",
          "type": "bytes"
        },
        {
          "internalType": "uint8",
          "name": "operation",
          "type": "uint8"
        }
      ],
      "name": "executeUserOpWithErrorString",
      "outputs": [],
      "stateMutability": "nonpayable",
      "type": "function"
    },
    {
      "inputs": [
        {
          "components": [
            {
              "internalType": "address",
              "name": "target",
              "type": "address"
            },
            {
              "internalType": "bytes",
              "name": "data",
              "type": "bytes"
            },
            {
              "internalType": "bool",
              "name": "allowAllDestinations",
              "type": "bool"
            }
          ],
          "internalType": "struct SessionKeys4337.Call",
          "name": "call",
          "type": "tuple"
        },
        {
          "internalType": "address",
          "name": "sessionKey",
          "type": "address"
        }
      ],
      "name": "executeWithSessionKey",
      "outputs": [],
      "stateMutability": "nonpayable",
      "type": "function"
    },
    {
      "inputs": [
        {
          "internalType": "bytes",
          "name": "message",
          "type": "bytes"
        }
      ],
      "name": "getMessageHash",
      "outputs": [
        {
          "internalType": "bytes32",
          "name": "",
          "type": "bytes32"
        }
      ],
      "stateMutability": "view",
      "type": "function"
    },
    {
      "inputs": [
        {
          "internalType": "contract Safe",
          "name": "safe",
          "type": "address"
        },
        {
          "internalType": "bytes",
          "name": "message",
          "type": "bytes"
        }
      ],
      "name": "getMessageHashForSafe",
      "outputs": [
        {
          "internalType": "bytes32",
          "name": "",
          "type": "bytes32"
        }
      ],
      "stateMutability": "view",
      "type": "function"
    },
    {
      "inputs": [],
      "name": "getModules",
      "outputs": [
        {
          "internalType": "address[]",
          "name": "",
          "type": "address[]"
        }
      ],
      "stateMutability": "view",
      "type": "function"
    },
    {
      "inputs": [
        {
          "components": [
            {
              "internalType": "address",
              "name": "sender",
              "type": "address"
            },
            {
              "internalType": "uint256",
              "name": "nonce",
              "type": "uint256"
            },
            {
              "internalType": "bytes",
              "name": "initCode",
              "type": "bytes"
            },
            {
              "internalType": "bytes",
              "name": "callData",
              "type": "bytes"
            },
            {
              "internalType": "bytes32",
              "name": "accountGasLimits",
              "type": "bytes32"
            },
            {
              "internalType": "uint256",
              "name": "preVerificationGas",
              "type": "uint256"
            },
            {
              "internalType": "bytes32",
              "name": "gasFees",
              "type": "bytes32"
            },
            {
              "internalType": "bytes",
              "name": "paymasterAndData",
              "type": "bytes"
            },
            {
              "internalType": "bytes",
              "name": "signature",
              "type": "bytes"
            }
          ],
          "internalType": "struct PackedUserOperation",
          "name": "userOp",
          "type": "tuple"
        }
      ],
      "name": "getOperationHash",
      "outputs": [
        {
          "internalType": "bytes32",
          "name": "operationHash",
          "type": "bytes32"
        }
      ],
      "stateMutability": "view",
      "type": "function"
    },
    {
      "inputs": [
        {
          "internalType": "bytes32",
          "name": "_dataHash",
          "type": "bytes32"
        },
        {
          "internalType": "bytes",
          "name": "_signature",
          "type": "bytes"
        }
      ],
      "name": "isValidSignature",
      "outputs": [
        {
          "internalType": "bytes4",
          "name": "",
          "type": "bytes4"
        }
      ],
      "stateMutability": "view",
      "type": "function"
    },
    {
      "inputs": [
        {
          "internalType": "bytes",
          "name": "_data",
          "type": "bytes"
        },
        {
          "internalType": "bytes",
          "name": "_signature",
          "type": "bytes"
        }
      ],
      "name": "isValidSignature",
      "outputs": [
        {
          "internalType": "bytes4",
          "name": "",
          "type": "bytes4"
        }
      ],
      "stateMutability": "view",
      "type": "function"
    },
    {
      "inputs": [
        {
          "internalType": "address",
          "name": "",
          "type": "address"
        },
        {
          "internalType": "address",
          "name": "",
          "type": "address"
        },
        {
          "internalType": "uint256[]",
          "name": "",
          "type": "uint256[]"
        },
        {
          "internalType": "uint256[]",
          "name": "",
          "type": "uint256[]"
        },
        {
          "internalType": "bytes",
          "name": "",
          "type": "bytes"
        }
      ],
      "name": "onERC1155BatchReceived",
      "outputs": [
        {
          "internalType": "bytes4",
          "name": "",
          "type": "bytes4"
        }
      ],
      "stateMutability": "pure",
      "type": "function"
    },
    {
      "inputs": [
        {
          "internalType": "address",
          "name": "",
          "type": "address"
        },
        {
          "internalType": "address",
          "name": "",
          "type": "address"
        },
        {
          "internalType": "uint256",
          "name": "",
          "type": "uint256"
        },
        {
          "internalType": "uint256",
          "name": "",
          "type": "uint256"
        },
        {
          "internalType": "bytes",
          "name": "",
          "type": "bytes"
        }
      ],
      "name": "onERC1155Received",
      "outputs": [
        {
          "internalType": "bytes4",
          "name": "",
          "type": "bytes4"
        }
      ],
      "stateMutability": "pure",
      "type": "function"
    },
    {
      "inputs": [
        {
          "internalType": "address",
          "name": "",
          "type": "address"
        },
        {
          "internalType": "address",
          "name": "",
          "type": "address"
        },
        {
          "internalType": "uint256",
          "name": "",
          "type": "uint256"
        },
        {
          "internalType": "bytes",
          "name": "",
          "type": "bytes"
        }
      ],
      "name": "onERC721Received",
      "outputs": [
        {
          "internalType": "bytes4",
          "name": "",
          "type": "bytes4"
        }
      ],
      "stateMutability": "pure",
      "type": "function"
    },
    {
      "inputs": [
        {
          "internalType": "address",
          "name": "sessionKey",
          "type": "address"
        },
        {
          "internalType": "address",
          "name": "destination",
          "type": "address"
        }
      ],
      "name": "removeWhitelistDestination",
      "outputs": [],
      "stateMutability": "nonpayable",
      "type": "function"
    },
    {
      "inputs": [
        {
          "internalType": "address",
          "name": "sessionKey",
          "type": "address"
        }
      ],
      "name": "revokeSession",
      "outputs": [],
      "stateMutability": "nonpayable",
      "type": "function"
    },
    {
      "inputs": [
        {
          "internalType": "address",
          "name": "",
          "type": "address"
        }
      ],
      "name": "sessionKeys",
      "outputs": [
        {
          "internalType": "address",
          "name": "account",
          "type": "address"
        },
        {
          "internalType": "uint48",
          "name": "validAfter",
          "type": "uint48"
        },
        {
          "internalType": "uint48",
          "name": "validUntil",
          "type": "uint48"
        },
        {
          "internalType": "bool",
          "name": "revoked",
          "type": "bool"
        }
      ],
      "stateMutability": "view",
      "type": "function"
    },
    {
      "inputs": [
        {
          "internalType": "address",
          "name": "targetContract",
          "type": "address"
        },
        {
          "internalType": "bytes",
          "name": "calldataPayload",
          "type": "bytes"
        }
      ],
      "name": "simulate",
      "outputs": [
        {
          "internalType": "bytes",
          "name": "response",
          "type": "bytes"
        }
      ],
      "stateMutability": "nonpayable",
      "type": "function"
    },
    {
      "inputs": [
        {
          "internalType": "bytes4",
          "name": "interfaceId",
          "type": "bytes4"
        }
      ],
      "name": "supportsInterface",
      "outputs": [
        {
          "internalType": "bool",
          "name": "",
          "type": "bool"
        }
      ],
      "stateMutability": "view",
      "type": "function"
    },
    {
      "inputs": [
        {
          "internalType": "address",
          "name": "",
          "type": "address"
        },
        {
          "internalType": "address",
          "name": "",
          "type": "address"
        },
        {
          "internalType": "address",
          "name": "",
          "type": "address"
        },
        {
          "internalType": "uint256",
          "name": "",
          "type": "uint256"
        },
        {
          "internalType": "bytes",
          "name": "",
          "type": "bytes"
        },
        {
          "internalType": "bytes",
          "name": "",
          "type": "bytes"
        }
      ],
      "name": "tokensReceived",
      "outputs": [],
      "stateMutability": "pure",
      "type": "function"
    },
    {
      "inputs": [
        {
          "components": [
            {
              "internalType": "address",
              "name": "sender",
              "type": "address"
            },
            {
              "internalType": "uint256",
              "name": "nonce",
              "type": "uint256"
            },
            {
              "internalType": "bytes",
              "name": "initCode",
              "type": "bytes"
            },
            {
              "internalType": "bytes",
              "name": "callData",
              "type": "bytes"
            },
            {
              "internalType": "bytes32",
              "name": "accountGasLimits",
              "type": "bytes32"
            },
            {
              "internalType": "uint256",
              "name": "preVerificationGas",
              "type": "uint256"
            },
            {
              "internalType": "bytes32",
              "name": "gasFees",
              "type": "bytes32"
            },
            {
              "internalType": "bytes",
              "name": "paymasterAndData",
              "type": "bytes"
            },
            {
              "internalType": "bytes",
              "name": "signature",
              "type": "bytes"
            }
          ],
          "internalType": "struct PackedUserOperation",
          "name": "userOp",
          "type": "tuple"
        },
        {
          "internalType": "bytes32",
          "name": "userOpHash",
          "type": "bytes32"
        },
        {
          "internalType": "uint256",
          "name": "missingAccountFunds",
          "type": "uint256"
        }
      ],
      "name": "validateUserOp",
      "outputs": [
        {
          "internalType": "uint256",
          "name": "validationData",
          "type": "uint256"
        }
      ],
      "stateMutability": "nonpayable",
      "type": "function"
    },
    {
      "inputs": [
        {
          "internalType": "address",
          "name": "",
          "type": "address"
        },
        {
          "internalType": "address",
          "name": "",
          "type": "address"
        }
      ],
      "name": "whitelistDestinations",
      "outputs": [
        {
          "internalType": "bool",
          "name": "",
          "type": "bool"
        }
      ],
      "stateMutability": "view",
      "type": "function"
    }
  ],
  "transactionHash": "0x59afcbeed03f2a1e8904a2e35057a81d8cbb493f905067cab90cbbc0ad436cd9",
  "args": [
    "0x0000000071727De22E5E9d8BAf0edAc6f37da032"
  ],
  "numDeployments": 1,
  "solcInputHash": "8173a511e833de1226334d55be5b2987",
  "bytecode": "0x60a06040523480156200001157600080fd5b5060405162004a6138038062004a61833981810160405281019062000037919062000143565b600073ffffffffffffffffffffffffffffffffffffffff168173ffffffffffffffffffffffffffffffffffffffff16036200009e576040517f2039d3c900000000000000000000000000000000000000000000000000000000815260040160405180910390fd5b8073ffffffffffffffffffffffffffffffffffffffff1660808173ffffffffffffffffffffffffffffffffffffffff16815250505062000175565b600080fd5b600073ffffffffffffffffffffffffffffffffffffffff82169050919050565b60006200010b82620000de565b9050919050565b6200011d81620000fe565b81146200012957600080fd5b50565b6000815190506200013d8162000112565b92915050565b6000602082840312156200015c576200015b620000d9565b5b60006200016c848285016200012c565b91505092915050565b6080516148ad620001b4600039600081816106ad015281816107f901528181610b22015281816112fd01528181611730015261269101526148ad6000f3fe608060405234801561001057600080fd5b50600436106101725760003560e01c80636ac24784116100de578063bc197c8111610097578063d3cb6b2b11610071578063d3cb6b2b146104ce578063f23a6e61146104ea578063f698da251461051a578063faca20f31461053857610172565b8063bc197c811461043e578063bd61951d1461046e578063c1c42b661461049e57610172565b80636ac24784146103555780637621447b146103855780637bb37428146103a1578063b2494df3146103bd578063b7b8d604146103db578063bbe5dc4f1461040e57610172565b806319822f7c1161013057806319822f7c146102715780631fa5d6a4146102a157806320c13b0b146102bd57806323031640146102ed5780632384c52a1461031d578063541d63c81461033957610172565b806223de291461017757806301ffc9a7146101935780630a1028c4146101c3578063137e051e146101f3578063150b7a02146102115780631626ba7e14610241575b600080fd5b610191600480360381019061018c9190612a6a565b610554565b005b6101ad60048036038101906101a89190612b91565b61055e565b6040516101ba9190612bd9565b60405180910390f35b6101dd60048036038101906101d89190612d35565b610698565b6040516101ea9190612d97565b60405180910390f35b6101fb6106ab565b6040516102089190612dc1565b60405180910390f35b61022b60048036038101906102269190612ddc565b6106cf565b6040516102389190612e73565b60405180910390f35b61025b60048036038101906102569190612eba565b6106e4565b6040516102689190612e73565b60405180910390f35b61028b60048036038101906102869190612f3f565b6107f5565b6040516102989190612fbd565b60405180910390f35b6102bb60048036038101906102b69190612fd8565b610bb0565b005b6102d760048036038101906102d29190613005565b610daa565b6040516102e49190612e73565b60405180910390f35b610307600480360381019061030291906130cd565b610f15565b60405161031491906131a8565b60405180910390f35b610337600480360381019061033291906131ca565b611013565b005b610353600480360381019061034e9190613243565b6112fb565b005b61036f600480360381019061036a91906130cd565b61142a565b60405161037c9190612d97565b60405180910390f35b61039f600480360381019061039a91906131ca565b611445565b005b6103bb60048036038101906103b69190613243565b61172e565b005b6103c5611878565b6040516103d29190613384565b60405180910390f35b6103f560048036038101906103f09190612fd8565b61190f565b60405161040594939291906133c7565b60405180910390f35b6104286004803603810190610423919061340c565b611990565b6040516104359190612d97565b60405180910390f35b610458600480360381019061045391906134ab565b6119b2565b6040516104659190612e73565b60405180910390f35b61048860048036038101906104839190613587565b6119ca565b60405161049591906131a8565b60405180910390f35b6104b860048036038101906104b391906131ca565b611a34565b6040516104c59190612bd9565b60405180910390f35b6104e860048036038101906104e39190613669565b611a63565b005b61050460048036038101906104ff91906136f1565b611db4565b6040516105119190612e73565b60405180910390f35b610522611dca565b60405161052f9190612d97565b60405180910390f35b610552600480360381019061054d91906137aa565b611e1f565b005b5050505050505050565b60007f4e2312e0000000000000000000000000000000000000000000000000000000007bffffffffffffffffffffffffffffffffffffffffffffffffffffffff1916827bffffffffffffffffffffffffffffffffffffffffffffffffffffffff1916148061062957507f150b7a02000000000000000000000000000000000000000000000000000000007bffffffffffffffffffffffffffffffffffffffffffffffffffffffff1916827bffffffffffffffffffffffffffffffffffffffffffffffffffffffff1916145b8061069157507f01ffc9a7000000000000000000000000000000000000000000000000000000007bffffffffffffffffffffffffffffffffffffffffffffffffffffffff1916827bffffffffffffffffffffffffffffffffffffffffffffffffffffffff1916145b9050919050565b60006106a4338361142a565b9050919050565b7f000000000000000000000000000000000000000000000000000000000000000081565b600063150b7a0260e01b905095945050505050565b60008033905060008173ffffffffffffffffffffffffffffffffffffffff166320c13b0b876040516020016107199190612d97565b60405160208183030381529060405287876040518463ffffffff1660e01b815260040161074893929190613833565b602060405180830381865afa158015610765573d6000803e3d6000fd5b505050506040513d601f19601f820116820180604052508101906107899190613881565b90506320c13b0b60e01b7bffffffffffffffffffffffffffffffffffffffffffffffffffffffff1916817bffffffffffffffffffffffffffffffffffffffffffffffffffffffff1916146107e157600060e01b6107ea565b631626ba7e60e01b5b925050509392505050565b60007f000000000000000000000000000000000000000000000000000000000000000073ffffffffffffffffffffffffffffffffffffffff16610836612289565b73ffffffffffffffffffffffffffffffffffffffff1614610883576040517f85db247d00000000000000000000000000000000000000000000000000000000815260040160405180910390fd5b60008460000160208101906108989190612fd8565b90503373ffffffffffffffffffffffffffffffffffffffff168173ffffffffffffffffffffffffffffffffffffffff16146108ff576040517f48f5c3ed00000000000000000000000000000000000000000000000000000000815260040160405180910390fd5b600085806060019061091191906138bd565b9061091c9190613938565b9050637bb3742860e01b7bffffffffffffffffffffffffffffffffffffffffffffffffffffffff1916817bffffffffffffffffffffffffffffffffffffffffffffffffffffffff1916141580156109b8575063541d63c860e01b7bffffffffffffffffffffffffffffffffffffffffffffffffffffffff1916817bffffffffffffffffffffffffffffffffffffffffffffffffffffffff191614155b8015610a09575063faca20f360e01b7bffffffffffffffffffffffffffffffffffffffffffffffffffffffff1916817bffffffffffffffffffffffffffffffffffffffffffffffffffffffff191614155b15610a4b57806040517f45c229ce000000000000000000000000000000000000000000000000000000008152600401610a429190612e73565b60405180910390fd5b637bb3742860e01b7bffffffffffffffffffffffffffffffffffffffffffffffffffffffff1916817bffffffffffffffffffffffffffffffffffffffffffffffffffffffff191603610aa357610aa086612298565b92505b63faca20f360e01b7bffffffffffffffffffffffffffffffffffffffffffffffffffffffff1916817bffffffffffffffffffffffffffffffffffffffffffffffffffffffff191603610afc57610af98686612365565b92505b60008414610ba7578173ffffffffffffffffffffffffffffffffffffffff1663468721a77f00000000000000000000000000000000000000000000000000000000000000008660006040518463ffffffff1660e01b8152600401610b6293929190613a02565b6020604051808303816000875af1158015610b81573d6000803e3d6000fd5b505050506040513d601f19601f82011682018060405250810190610ba59190613a78565b505b50509392505050565b6000600160008373ffffffffffffffffffffffffffffffffffffffff1673ffffffffffffffffffffffffffffffffffffffff16815260200190815260200160002090508060000160009054906101000a900473ffffffffffffffffffffffffffffffffffffffff1673ffffffffffffffffffffffffffffffffffffffff163373ffffffffffffffffffffffffffffffffffffffff1614610c7c576040517f8f33e8ca00000000000000000000000000000000000000000000000000000000815260040160405180910390fd5b60008160000160149054906101000a900465ffffffffffff1665ffffffffffff1603610cdd576040517f08c379a0000000000000000000000000000000000000000000000000000000008152600401610cd490613b02565b60405180910390fd5b8060010160009054906101000a900460ff1615610d2f576040517f08c379a0000000000000000000000000000000000000000000000000000000008152600401610d2690613b6e565b60405180910390fd5b60018160010160006101000a81548160ff0219169083151502179055503373ffffffffffffffffffffffffffffffffffffffff168273ffffffffffffffffffffffffffffffffffffffff167f744157ccffbd293a2e8644928cd7d23d650f869b88f72d7bfea8041b76ca6bec60405160405180910390a35050565b6000803390506000610dbc8286610f15565b90506000818051906020012090506000855103610e945760008373ffffffffffffffffffffffffffffffffffffffff16635ae6bd37836040518263ffffffff1660e01b8152600401610e0e9190612d97565b602060405180830381865afa158015610e2b573d6000803e3d6000fd5b505050506040513d601f19601f82011682018060405250810190610e4f9190613ba3565b03610e8f576040517f08c379a0000000000000000000000000000000000000000000000000000000008152600401610e8690613c1c565b60405180910390fd5b610f02565b8273ffffffffffffffffffffffffffffffffffffffff1663934f3a118284886040518463ffffffff1660e01b8152600401610ed193929190613c3c565b60006040518083038186803b158015610ee957600080fd5b505afa158015610efd573d6000803e3d6000fd5b505050505b6320c13b0b60e01b935050505092915050565b606060007f60b3cbf8b4a223d68d641b3b6ddf9a298e7f33710cf3d3a9d1146b5a6150fbca60001b8380519060200120604051602001610f56929190613c81565b604051602081830303815290604052805190602001209050601960f81b600160f81b8573ffffffffffffffffffffffffffffffffffffffff1663f698da256040518163ffffffff1660e01b8152600401602060405180830381865afa158015610fc3573d6000803e3d6000fd5b505050506040513d601f19601f82011682018060405250810190610fe79190613cbf565b83604051602001610ffb9493929190613d5a565b60405160208183030381529060405291505092915050565b6000600160008473ffffffffffffffffffffffffffffffffffffffff1673ffffffffffffffffffffffffffffffffffffffff16815260200190815260200160002090508060000160009054906101000a900473ffffffffffffffffffffffffffffffffffffffff1673ffffffffffffffffffffffffffffffffffffffff163373ffffffffffffffffffffffffffffffffffffffff16146110df576040517f8f33e8ca00000000000000000000000000000000000000000000000000000000815260040160405180910390fd5b60008160000160149054906101000a900465ffffffffffff1665ffffffffffff1603611140576040517f08c379a000000000000000000000000000000000000000000000000000000000815260040161113790613b02565b60405180910390fd5b6000808473ffffffffffffffffffffffffffffffffffffffff1673ffffffffffffffffffffffffffffffffffffffff16815260200190815260200160002060008373ffffffffffffffffffffffffffffffffffffffff1673ffffffffffffffffffffffffffffffffffffffff16815260200190815260200160002060009054906101000a900460ff16611208576040517f08c379a00000000000000000000000000000000000000000000000000000000081526004016111ff90613df4565b60405180910390fd5b60008060008573ffffffffffffffffffffffffffffffffffffffff1673ffffffffffffffffffffffffffffffffffffffff16815260200190815260200160002060008473ffffffffffffffffffffffffffffffffffffffff1673ffffffffffffffffffffffffffffffffffffffff16815260200190815260200160002060006101000a81548160ff0219169083151502179055508173ffffffffffffffffffffffffffffffffffffffff168373ffffffffffffffffffffffffffffffffffffffff167fb7d2f0cb6e5a90a738947d772a6108672b134e4c3ecac212510bd2defdea0f3d60405160405180910390a3505050565b7f000000000000000000000000000000000000000000000000000000000000000073ffffffffffffffffffffffffffffffffffffffff1661133a612289565b73ffffffffffffffffffffffffffffffffffffffff1614611387576040517f85db247d00000000000000000000000000000000000000000000000000000000815260040160405180910390fd5b6000803373ffffffffffffffffffffffffffffffffffffffff16635229073f878787876040518563ffffffff1660e01b81526004016113c99493929190613e23565b6000604051808303816000875af11580156113e8573d6000803e3d6000fd5b505050506040513d6000823e3d601f19601f820116820180604052508101906114119190613edf565b915091508161142257805160208201fd5b505050505050565b60006114368383610f15565b80519060200120905092915050565b6000600160008473ffffffffffffffffffffffffffffffffffffffff1673ffffffffffffffffffffffffffffffffffffffff16815260200190815260200160002090508060000160009054906101000a900473ffffffffffffffffffffffffffffffffffffffff1673ffffffffffffffffffffffffffffffffffffffff163373ffffffffffffffffffffffffffffffffffffffff1614611511576040517f8f33e8ca00000000000000000000000000000000000000000000000000000000815260040160405180910390fd5b60008160000160149054906101000a900465ffffffffffff1665ffffffffffff1603611572576040517f08c379a000000000000000000000000000000000000000000000000000000000815260040161156990613b02565b60405180910390fd5b6000808473ffffffffffffffffffffffffffffffffffffffff1673ffffffffffffffffffffffffffffffffffffffff16815260200190815260200160002060008373ffffffffffffffffffffffffffffffffffffffff1673ffffffffffffffffffffffffffffffffffffffff16815260200190815260200160002060009054906101000a900460ff161561163b576040517f08c379a000000000000000000000000000000000000000000000000000000000815260040161163290613f87565b60405180910390fd5b60016000808573ffffffffffffffffffffffffffffffffffffffff1673ffffffffffffffffffffffffffffffffffffffff16815260200190815260200160002060008473ffffffffffffffffffffffffffffffffffffffff1673ffffffffffffffffffffffffffffffffffffffff16815260200190815260200160002060006101000a81548160ff0219169083151502179055508173ffffffffffffffffffffffffffffffffffffffff168373ffffffffffffffffffffffffffffffffffffffff167fa0da8f7327c6c6a5cb926aea0c4dbb403947f1a9ff3dafa682fc4b69ef29962f60405160405180910390a3505050565b7f000000000000000000000000000000000000000000000000000000000000000073ffffffffffffffffffffffffffffffffffffffff1661176d612289565b73ffffffffffffffffffffffffffffffffffffffff16146117ba576040517f85db247d00000000000000000000000000000000000000000000000000000000815260040160405180910390fd5b3373ffffffffffffffffffffffffffffffffffffffff1663468721a7858585856040518563ffffffff1660e01b81526004016117f99493929190613e23565b6020604051808303816000875af1158015611818573d6000803e3d6000fd5b505050506040513d601f19601f8201168201806040525081019061183c9190613a78565b611872576040517facfdb44400000000000000000000000000000000000000000000000000000000815260040160405180910390fd5b50505050565b6060600033905060008173ffffffffffffffffffffffffffffffffffffffff1663cc2f84526001600a6040518363ffffffff1660e01b81526004016118be929190613fe2565b600060405180830381865afa1580156118db573d6000803e3d6000fd5b505050506040513d6000823e3d601f19601f8201168201806040525081019061190491906140e3565b509050809250505090565b60016020528060005260406000206000915090508060000160009054906101000a900473ffffffffffffffffffffffffffffffffffffffff16908060000160149054906101000a900465ffffffffffff169080600001601a9054906101000a900465ffffffffffff16908060010160009054906101000a900460ff16905084565b60008061199c83612478565b5050505090508080519060200120915050919050565b600063bc197c8160e01b905098975050505050505050565b60606040517fb4faba09000000000000000000000000000000000000000000000000000000008152600436036004808301376020600036836000335af15060203d036040519250808301604052806020843e600051611a2b57825160208401fd5b50509392505050565b60006020528160005260406000206020528060005260406000206000915091509054906101000a900460ff1681565b6000600160008773ffffffffffffffffffffffffffffffffffffffff1673ffffffffffffffffffffffffffffffffffffffff168152602001908152602001600020905060008160000160149054906101000a900465ffffffffffff1665ffffffffffff1614611b07576040517f08c379a0000000000000000000000000000000000000000000000000000000008152600401611afe9061418b565b60405180910390fd5b428565ffffffffffff161015611b52576040517f08c379a0000000000000000000000000000000000000000000000000000000008152600401611b499061421d565b60405180910390fd5b8365ffffffffffff168565ffffffffffff1610611ba4576040517f08c379a0000000000000000000000000000000000000000000000000000000008152600401611b9b906142af565b60405180910390fd5b60008383905011611bea576040517f08c379a0000000000000000000000000000000000000000000000000000000008152600401611be190614341565b60405180910390fd5b338160000160006101000a81548173ffffffffffffffffffffffffffffffffffffffff021916908373ffffffffffffffffffffffffffffffffffffffff160217905550848160000160146101000a81548165ffffffffffff021916908365ffffffffffff1602179055508381600001601a6101000a81548165ffffffffffff021916908365ffffffffffff16021790555060005b83839050811015611d515760016000808973ffffffffffffffffffffffffffffffffffffffff1673ffffffffffffffffffffffffffffffffffffffff1681526020019081526020016000206000868685818110611cde57611cdd614361565b5b9050602002016020810190611cf39190612fd8565b73ffffffffffffffffffffffffffffffffffffffff1673ffffffffffffffffffffffffffffffffffffffff16815260200190815260200160002060006101000a81548160ff0219169083151502179055508080600101915050611c7e565b503373ffffffffffffffffffffffffffffffffffffffff168673ffffffffffffffffffffffffffffffffffffffff167f18181a00afae36a38027e087bdecba0ee3dd48839669ffb2b1484450c703267b60405160405180910390a3505050505050565b600063f23a6e6160e01b90509695505050505050565b60007f47e79534a245952e8b16893a336b85a3d9ea9fa8c573f3d803afb92a7946921860001b4630604051602001611e04939291906143e5565b60405160208183030381529060405280519060200120905090565b6000600160008373ffffffffffffffffffffffffffffffffffffffff1673ffffffffffffffffffffffffffffffffffffffff1681526020019081526020016000206040518060800160405290816000820160009054906101000a900473ffffffffffffffffffffffffffffffffffffffff1673ffffffffffffffffffffffffffffffffffffffff1673ffffffffffffffffffffffffffffffffffffffff1681526020016000820160149054906101000a900465ffffffffffff1665ffffffffffff1665ffffffffffff16815260200160008201601a9054906101000a900465ffffffffffff1665ffffffffffff1665ffffffffffff1681526020016001820160009054906101000a900460ff1615151515815250509050806020015165ffffffffffff16421080611f5b5750806040015165ffffffffffff1642115b15611f9d57816040517f4ee3f18b000000000000000000000000000000000000000000000000000000008152600401611f949190612dc1565b60405180910390fd5b806060015115611fe457816040517fa0fcc573000000000000000000000000000000000000000000000000000000008152600401611fdb9190612dc1565b60405180910390fd5b826040016020810190611ff79190614431565b156120c9576000808373ffffffffffffffffffffffffffffffffffffffff1673ffffffffffffffffffffffffffffffffffffffff16815260200190815260200160002060008073ffffffffffffffffffffffffffffffffffffffff1673ffffffffffffffffffffffffffffffffffffffff16815260200190815260200160002060009054906101000a900460ff166120c4576040517f08c379a00000000000000000000000000000000000000000000000000000000081526004016120bb906144aa565b60405180910390fd5b6121a4565b6000808373ffffffffffffffffffffffffffffffffffffffff1673ffffffffffffffffffffffffffffffffffffffff168152602001908152602001600020600084600001602081019061211c9190612fd8565b73ffffffffffffffffffffffffffffffffffffffff1673ffffffffffffffffffffffffffffffffffffffff16815260200190815260200160002060009054906101000a900460ff166121a3576040517f08c379a000000000000000000000000000000000000000000000000000000000815260040161219a90613df4565b60405180910390fd5b5b806000015173ffffffffffffffffffffffffffffffffffffffff1663468721a78460000160208101906121d79190612fd8565b60008680602001906121e991906138bd565b60006040518663ffffffff1660e01b815260040161220b959493929190614572565b6020604051808303816000875af115801561222a573d6000803e3d6000fd5b505050506040513d601f19601f8201168201806040525081019061224e9190613a78565b612284576040517fffbfc28e00000000000000000000000000000000000000000000000000000000815260040160405180910390fd5b505050565b6000601436033560601c905090565b6000806000803660006122aa87612478565b945094509450945094508660000160208101906122c79190612fd8565b73ffffffffffffffffffffffffffffffffffffffff1663934f3a1186805190602001208785856040518563ffffffff1660e01b815260040161230c94939291906145c0565b60006040518083038186803b15801561232457600080fd5b505afa925050508015612335575060015b61234c5761234560018486612716565b955061235b565b61235860008486612716565b95505b5050505050919050565b60008083806060019061237891906138bd565b600490809261238993929190614611565b8101906123969190614702565b9150506000806124016123a88661274f565b878061010001906123b991906138bd565b8080601f016020809104026020016040519081016040528093929190818152602001838380828437600081840152601f19601f82011690508083019250505050505050612785565b50915091506000600381111561241a576124196144fb565b5b81600381111561242d5761242c6144fb565b5b1461243757600193505b8173ffffffffffffffffffffffffffffffffffffffff168373ffffffffffffffffffffffffffffffffffffffff161461246f57600193505b50505092915050565b60606000803660003660008780610100019061249491906138bd565b9150915081816000906006926124ac93929190614611565b906124b7919061478a565b60d01c95508181600690600c926124d093929190614611565b906124db919061478a565b60d01c94508181600c9080926124f393929190614611565b9350935050506000604051806101c001604052807fc03dfc11d8b10bf9cf703d558958c8c42777f785d998c62060d85a4f0ef6ea7f60001b81526020018860000160208101906125439190612fd8565b73ffffffffffffffffffffffffffffffffffffffff1681526020018860200135815260200188806040019061257891906138bd565b604051612586929190614819565b604051809103902081526020018880606001906125a391906138bd565b6040516125b1929190614819565b604051809103902081526020016125c7896127e1565b6fffffffffffffffffffffffffffffffff1681526020016125e7896127f7565b6fffffffffffffffffffffffffffffffff1681526020018860a0013581526020016126118961280d565b6fffffffffffffffffffffffffffffffff16815260200161263189612823565b6fffffffffffffffffffffffffffffffff168152602001888060e0019061265891906138bd565b604051612666929190614819565b604051809103902081526020018665ffffffffffff1681526020018565ffffffffffff1681526020017f000000000000000000000000000000000000000000000000000000000000000073ffffffffffffffffffffffffffffffffffffffff16815250905060006101c082209050601960f81b600160f81b6126e6611dca565b836040516020016126fa9493929190613d5a565b6040516020818303038152906040529650505091939590929450565b600060d08265ffffffffffff16901b60a08465ffffffffffff16901b8561273e576000612741565b60015b60ff16171790509392505050565b60007f19457468657265756d205369676e6564204d6573736167653a0a33320000000060005281601c52603c6000209050919050565b600080600060418451036127ca5760008060006020870151925060408701519150606087015160001a90506127bc88828585612839565b9550955095505050506127da565b60006002855160001b9250925092505b9250925092565b60006127f0826080013561292d565b9050919050565b6000612806826080013561293e565b9050919050565b600061281c8260c0013561292d565b9050919050565b60006128328260c0013561293e565b9050919050565b60008060007f7fffffffffffffffffffffffffffffff5d576e7357a4501ddfe92f46681b20a08460001c1115612879576000600385925092509250612923565b60006001888888886040516000815260200160405260405161289e9493929190614832565b6020604051602081039080840390855afa1580156128c0573d6000803e3d6000fd5b505050602060405103519050600073ffffffffffffffffffffffffffffffffffffffff168173ffffffffffffffffffffffffffffffffffffffff160361291457600060016000801b93509350935050612923565b8060008060001b935093509350505b9450945094915050565b600060808260001c901c9050919050565b60008160001c6fffffffffffffffffffffffffffffffff169050919050565b6000604051905090565b600080fd5b600080fd5b600073ffffffffffffffffffffffffffffffffffffffff82169050919050565b600061299c82612971565b9050919050565b6129ac81612991565b81146129b757600080fd5b50565b6000813590506129c9816129a3565b92915050565b6000819050919050565b6129e2816129cf565b81146129ed57600080fd5b50565b6000813590506129ff816129d9565b92915050565b600080fd5b600080fd5b600080fd5b60008083601f840112612a2a57612a29612a05565b5b8235905067ffffffffffffffff811115612a4757612a46612a0a565b5b602083019150836001820283011115612a6357612a62612a0f565b5b9250929050565b60008060008060008060008060c0898b031215612a8a57612a89612967565b5b6000612a988b828c016129ba565b9850506020612aa98b828c016129ba565b9750506040612aba8b828c016129ba565b9650506060612acb8b828c016129f0565b955050608089013567ffffffffffffffff811115612aec57612aeb61296c565b5b612af88b828c01612a14565b945094505060a089013567ffffffffffffffff811115612b1b57612b1a61296c565b5b612b278b828c01612a14565b92509250509295985092959890939650565b60007fffffffff0000000000000000000000000000000000000000000000000000000082169050919050565b612b6e81612b39565b8114612b7957600080fd5b50565b600081359050612b8b81612b65565b92915050565b600060208284031215612ba757612ba6612967565b5b6000612bb584828501612b7c565b91505092915050565b60008115159050919050565b612bd381612bbe565b82525050565b6000602082019050612bee6000830184612bca565b92915050565b600080fd5b6000601f19601f8301169050919050565b7f4e487b7100000000000000000000000000000000000000000000000000000000600052604160045260246000fd5b612c4282612bf9565b810181811067ffffffffffffffff82111715612c6157612c60612c0a565b5b80604052505050565b6000612c7461295d565b9050612c808282612c39565b919050565b600067ffffffffffffffff821115612ca057612c9f612c0a565b5b612ca982612bf9565b9050602081019050919050565b82818337600083830152505050565b6000612cd8612cd384612c85565b612c6a565b905082815260208101848484011115612cf457612cf3612bf4565b5b612cff848285612cb6565b509392505050565b600082601f830112612d1c57612d1b612a05565b5b8135612d2c848260208601612cc5565b91505092915050565b600060208284031215612d4b57612d4a612967565b5b600082013567ffffffffffffffff811115612d6957612d6861296c565b5b612d7584828501612d07565b91505092915050565b6000819050919050565b612d9181612d7e565b82525050565b6000602082019050612dac6000830184612d88565b92915050565b612dbb81612991565b82525050565b6000602082019050612dd66000830184612db2565b92915050565b600080600080600060808688031215612df857612df7612967565b5b6000612e06888289016129ba565b9550506020612e17888289016129ba565b9450506040612e28888289016129f0565b935050606086013567ffffffffffffffff811115612e4957612e4861296c565b5b612e5588828901612a14565b92509250509295509295909350565b612e6d81612b39565b82525050565b6000602082019050612e886000830184612e64565b92915050565b612e9781612d7e565b8114612ea257600080fd5b50565b600081359050612eb481612e8e565b92915050565b600080600060408486031215612ed357612ed2612967565b5b6000612ee186828701612ea5565b935050602084013567ffffffffffffffff811115612f0257612f0161296c565b5b612f0e86828701612a14565b92509250509250925092565b600080fd5b60006101208284031215612f3657612f35612f1a565b5b81905092915050565b600080600060608486031215612f5857612f57612967565b5b600084013567ffffffffffffffff811115612f7657612f7561296c565b5b612f8286828701612f1f565b9350506020612f9386828701612ea5565b9250506040612fa4868287016129f0565b9150509250925092565b612fb7816129cf565b82525050565b6000602082019050612fd26000830184612fae565b92915050565b600060208284031215612fee57612fed612967565b5b6000612ffc848285016129ba565b91505092915050565b6000806040838503121561301c5761301b612967565b5b600083013567ffffffffffffffff81111561303a5761303961296c565b5b61304685828601612d07565b925050602083013567ffffffffffffffff8111156130675761306661296c565b5b61307385828601612d07565b9150509250929050565b600061308882612971565b9050919050565b600061309a8261307d565b9050919050565b6130aa8161308f565b81146130b557600080fd5b50565b6000813590506130c7816130a1565b92915050565b600080604083850312156130e4576130e3612967565b5b60006130f2858286016130b8565b925050602083013567ffffffffffffffff8111156131135761311261296c565b5b61311f85828601612d07565b9150509250929050565b600081519050919050565b600082825260208201905092915050565b60005b83811015613163578082015181840152602081019050613148565b60008484015250505050565b600061317a82613129565b6131848185613134565b9350613194818560208601613145565b61319d81612bf9565b840191505092915050565b600060208201905081810360008301526131c2818461316f565b905092915050565b600080604083850312156131e1576131e0612967565b5b60006131ef858286016129ba565b9250506020613200858286016129ba565b9150509250929050565b600060ff82169050919050565b6132208161320a565b811461322b57600080fd5b50565b60008135905061323d81613217565b92915050565b6000806000806080858703121561325d5761325c612967565b5b600061326b878288016129ba565b945050602061327c878288016129f0565b935050604085013567ffffffffffffffff81111561329d5761329c61296c565b5b6132a987828801612d07565b92505060606132ba8782880161322e565b91505092959194509250565b600081519050919050565b600082825260208201905092915050565b6000819050602082019050919050565b6132fb81612991565b82525050565b600061330d83836132f2565b60208301905092915050565b6000602082019050919050565b6000613331826132c6565b61333b81856132d1565b9350613346836132e2565b8060005b8381101561337757815161335e8882613301565b975061336983613319565b92505060018101905061334a565b5085935050505092915050565b6000602082019050818103600083015261339e8184613326565b905092915050565b600065ffffffffffff82169050919050565b6133c1816133a6565b82525050565b60006080820190506133dc6000830187612db2565b6133e960208301866133b8565b6133f660408301856133b8565b6134036060830184612bca565b95945050505050565b60006020828403121561342257613421612967565b5b600082013567ffffffffffffffff8111156134405761343f61296c565b5b61344c84828501612f1f565b91505092915050565b60008083601f84011261346b5761346a612a05565b5b8235905067ffffffffffffffff81111561348857613487612a0a565b5b6020830191508360208202830111156134a4576134a3612a0f565b5b9250929050565b60008060008060008060008060a0898b0312156134cb576134ca612967565b5b60006134d98b828c016129ba565b98505060206134ea8b828c016129ba565b975050604089013567ffffffffffffffff81111561350b5761350a61296c565b5b6135178b828c01613455565b9650965050606089013567ffffffffffffffff81111561353a5761353961296c565b5b6135468b828c01613455565b9450945050608089013567ffffffffffffffff8111156135695761356861296c565b5b6135758b828c01612a14565b92509250509295985092959890939650565b6000806000604084860312156135a05761359f612967565b5b60006135ae868287016129ba565b935050602084013567ffffffffffffffff8111156135cf576135ce61296c565b5b6135db86828701612a14565b92509250509250925092565b6135f0816133a6565b81146135fb57600080fd5b50565b60008135905061360d816135e7565b92915050565b60008083601f84011261362957613628612a05565b5b8235905067ffffffffffffffff81111561364657613645612a0a565b5b60208301915083602082028301111561366257613661612a0f565b5b9250929050565b60008060008060006080868803121561368557613684612967565b5b6000613693888289016129ba565b95505060206136a4888289016135fe565b94505060406136b5888289016135fe565b935050606086013567ffffffffffffffff8111156136d6576136d561296c565b5b6136e288828901613613565b92509250509295509295909350565b60008060008060008060a0878903121561370e5761370d612967565b5b600061371c89828a016129ba565b965050602061372d89828a016129ba565b955050604061373e89828a016129f0565b945050606061374f89828a016129f0565b935050608087013567ffffffffffffffff8111156137705761376f61296c565b5b61377c89828a01612a14565b92509250509295509295509295565b6000606082840312156137a1576137a0612f1a565b5b81905092915050565b600080604083850312156137c1576137c0612967565b5b600083013567ffffffffffffffff8111156137df576137de61296c565b5b6137eb8582860161378b565b92505060206137fc858286016129ba565b9150509250929050565b60006138128385613134565b935061381f838584612cb6565b61382883612bf9565b840190509392505050565b6000604082019050818103600083015261384d818661316f565b90508181036020830152613862818486613806565b9050949350505050565b60008151905061387b81612b65565b92915050565b60006020828403121561389757613896612967565b5b60006138a58482850161386c565b91505092915050565b600080fd5b600080fd5b600080fd5b600080833560016020038436030381126138da576138d96138ae565b5b80840192508235915067ffffffffffffffff8211156138fc576138fb6138b3565b5b602083019250600182023603831315613918576139176138b8565b5b509250929050565b600082905092915050565b600082821b905092915050565b60006139448383613920565b8261394f8135612b39565b9250600482101561398f5761398a7fffffffff000000000000000000000000000000000000000000000000000000008360040360080261392b565b831692505b505092915050565b50565b60006139a7600083613134565b91506139b282613997565b600082019050919050565b6000819050919050565b6000819050919050565b60006139ec6139e76139e2846139bd565b6139c7565b61320a565b9050919050565b6139fc816139d1565b82525050565b6000608082019050613a176000830186612db2565b613a246020830185612fae565b8181036040830152613a358161399a565b9050613a4460608301846139f3565b949350505050565b613a5581612bbe565b8114613a6057600080fd5b50565b600081519050613a7281613a4c565b92915050565b600060208284031215613a8e57613a8d612967565b5b6000613a9c84828501613a63565b91505092915050565b600082825260208201905092915050565b7f53657373696f6e20646f6573206e6f7420657869737400000000000000000000600082015250565b6000613aec601683613aa5565b9150613af782613ab6565b602082019050919050565b60006020820190508181036000830152613b1b81613adf565b9050919050565b7f53657373696f6e2068617320616c7265616479206265656e207265766f6b6564600082015250565b6000613b58602083613aa5565b9150613b6382613b22565b602082019050919050565b60006020820190508181036000830152613b8781613b4b565b9050919050565b600081519050613b9d816129d9565b92915050565b600060208284031215613bb957613bb8612967565b5b6000613bc784828501613b8e565b91505092915050565b7f48617368206e6f7420617070726f766564000000000000000000000000000000600082015250565b6000613c06601183613aa5565b9150613c1182613bd0565b602082019050919050565b60006020820190508181036000830152613c3581613bf9565b9050919050565b6000606082019050613c516000830186612d88565b8181036020830152613c63818561316f565b90508181036040830152613c77818461316f565b9050949350505050565b6000604082019050613c966000830185612d88565b613ca36020830184612d88565b9392505050565b600081519050613cb981612e8e565b92915050565b600060208284031215613cd557613cd4612967565b5b6000613ce384828501613caa565b91505092915050565b60007fff0000000000000000000000000000000000000000000000000000000000000082169050919050565b6000819050919050565b613d33613d2e82613cec565b613d18565b82525050565b6000819050919050565b613d54613d4f82612d7e565b613d39565b82525050565b6000613d668287613d22565b600182019150613d768286613d22565b600182019150613d868285613d43565b602082019150613d968284613d43565b60208201915081905095945050505050565b7f44657374696e6174696f6e206e6f742077686974656c69737465640000000000600082015250565b6000613dde601b83613aa5565b9150613de982613da8565b602082019050919050565b60006020820190508181036000830152613e0d81613dd1565b9050919050565b613e1d8161320a565b82525050565b6000608082019050613e386000830187612db2565b613e456020830186612fae565b8181036040830152613e57818561316f565b9050613e666060830184613e14565b95945050505050565b6000613e82613e7d84612c85565b612c6a565b905082815260208101848484011115613e9e57613e9d612bf4565b5b613ea9848285613145565b509392505050565b600082601f830112613ec657613ec5612a05565b5b8151613ed6848260208601613e6f565b91505092915050565b60008060408385031215613ef657613ef5612967565b5b6000613f0485828601613a63565b925050602083015167ffffffffffffffff811115613f2557613f2461296c565b5b613f3185828601613eb1565b9150509250929050565b7f44657374696e6174696f6e20616c72656164792077686974656c697374656400600082015250565b6000613f71601f83613aa5565b9150613f7c82613f3b565b602082019050919050565b60006020820190508181036000830152613fa081613f64565b9050919050565b6000819050919050565b6000613fcc613fc7613fc284613fa7565b6139c7565b6129cf565b9050919050565b613fdc81613fb1565b82525050565b6000604082019050613ff76000830185612db2565b6140046020830184613fd3565b9392505050565b600067ffffffffffffffff82111561402657614025612c0a565b5b602082029050602081019050919050565b600081519050614046816129a3565b92915050565b600061405f61405a8461400b565b612c6a565b9050808382526020820190506020840283018581111561408257614081612a0f565b5b835b818110156140ab57806140978882614037565b845260208401935050602081019050614084565b5050509392505050565b600082601f8301126140ca576140c9612a05565b5b81516140da84826020860161404c565b91505092915050565b600080604083850312156140fa576140f9612967565b5b600083015167ffffffffffffffff8111156141185761411761296c565b5b614124858286016140b5565b925050602061413585828601614037565b9150509250929050565b7f53657373696f6e20616c72656164792065786973747300000000000000000000600082015250565b6000614175601683613aa5565b91506141808261413f565b602082019050919050565b600060208201905081810360008301526141a481614168565b9050919050565b7f76616c69644166746572206174206c656173742066726f6d207468652063757260008201527f72656e742074696d650000000000000000000000000000000000000000000000602082015250565b6000614207602983613aa5565b9150614212826141ab565b604082019050919050565b60006020820190508181036000830152614236816141fa565b9050919050565b7f53746172742074696d65206d757374206265206265666f726520656e6420746960008201527f6d65000000000000000000000000000000000000000000000000000000000000602082015250565b6000614299602283613aa5565b91506142a48261423d565b604082019050919050565b600060208201905081810360008301526142c88161428c565b9050919050565b7f4d7573742068617665206174206c65617374206f6e652064657374696e61746960008201527f6f6e000000000000000000000000000000000000000000000000000000000000602082015250565b600061432b602283613aa5565b9150614336826142cf565b604082019050919050565b6000602082019050818103600083015261435a8161431e565b9050919050565b7f4e487b7100000000000000000000000000000000000000000000000000000000600052603260045260246000fd5b60006143ab6143a66143a184612971565b6139c7565b612971565b9050919050565b60006143bd82614390565b9050919050565b60006143cf826143b2565b9050919050565b6143df816143c4565b82525050565b60006060820190506143fa6000830186612d88565b6144076020830185612fae565b61441460408301846143d6565b949350505050565b60008135905061442b81613a4c565b92915050565b60006020828403121561444757614446612967565b5b60006144558482850161441c565b91505092915050565b7f416c6c2064657374696e6174696f6e73206e6f742077686974656c6973746564600082015250565b6000614494602083613aa5565b915061449f8261445e565b602082019050919050565b600060208201905081810360008301526144c381614487565b9050919050565b60006144e56144e06144db846139bd565b6139c7565b6129cf565b9050919050565b6144f5816144ca565b82525050565b7f4e487b7100000000000000000000000000000000000000000000000000000000600052602160045260246000fd5b6002811061453b5761453a6144fb565b5b50565b600081905061454c8261452a565b919050565b600061455c8261453e565b9050919050565b61456c81614551565b82525050565b60006080820190506145876000830188612db2565b61459460208301876144ec565b81810360408301526145a7818587613806565b90506145b66060830184614563565b9695505050505050565b60006060820190506145d56000830187612d88565b81810360208301526145e7818661316f565b905081810360408301526145fc818486613806565b905095945050505050565b600080fd5b600080fd5b6000808585111561462557614624614607565b5b838611156146365761463561460c565b5b6001850283019150848603905094509492505050565b600080fd5b600080fd5b60006060828403121561466c5761466b61464c565b5b6146766060612c6a565b90506000614686848285016129ba565b600083015250602082013567ffffffffffffffff8111156146aa576146a9614651565b5b6146b684828501612d07565b60208301525060406146ca8482850161441c565b60408301525092915050565b6146df8161307d565b81146146ea57600080fd5b50565b6000813590506146fc816146d6565b92915050565b6000806040838503121561471957614718612967565b5b600083013567ffffffffffffffff8111156147375761473661296c565b5b61474385828601614656565b9250506020614754858286016146ed565b9150509250929050565b60007fffffffffffff000000000000000000000000000000000000000000000000000082169050919050565b60006147968383613920565b826147a1813561475e565b925060068210156147e1576147dc7fffffffffffff00000000000000000000000000000000000000000000000000008360060360080261392b565b831692505b505092915050565b600081905092915050565b600061480083856147e9565b935061480d838584612cb6565b82840190509392505050565b60006148268284866147f4565b91508190509392505050565b60006080820190506148476000830187612d88565b6148546020830186613e14565b6148616040830185612d88565b61486e6060830184612d88565b9594505050505056fea26469706673582212203aa960813ccb2f9c0cc843aad94796b7b99ddcd8f3dd88f3d508c5cd3b769b8b64736f6c63430008170033",
  "devdoc": {
    "custom:security-contact": "bounty@safe.global",
    "details": "The contract is both a module and fallback handler.      Safe forwards the `validateUserOp` call to this contract, it validates the user operation and returns the result.      It also executes a module transaction to pay the prefund. Similar flow for the actual operation execution.      Security considerations:      - The module is limited to the entry point address specified in the constructor.      - The user operation hash is signed by the Safe owner(s) and validated by the module.      - The user operation is not allowed to execute any other function than `executeUserOp` and `executeUserOpWithErrorString`.      - Replay protection is handled by the entry point.",
    "errors": {
      "ExecutionFailed()": [
        {
          "details": "The contract reverts with this error when `executeUserOp` is used instead of bubbling up the original revert data. When bubbling up revert data is desirable, `executeUserOpWithErrorString` should be used instead."
        }
      ],
      "InvalidCaller()": [
        {
          "details": "This indicates that the module is being used to validate a user operation for a Safe that did not directly call this module."
        }
      ],
      "InvalidSessionKeyCaller()": [
        {
          "details": "This indicates that the module is being used to validate a user operation for a Safe that did not directly call this module.copied from `InvalidCaller` for inheritance reasons."
        }
      ],
      "SessionKeyExecutionFailed()": [
        {
          "details": "The contract reverts with this error when `executeUserOp` is used instead of bubbling up the original revert data. When bubbling up revert data is desirable, `executeUserOpWithErrorString` should be used instead.copied from `ExecutionFailed` for inheritance reasons."
        }
      ]
    },
    "kind": "dev",
    "methods": {
      "addSessionKey(address,uint48,uint48,address[])": {
        "params": {
          "destinations": "The destinations that are whitelisted for the session",
          "sessionKey": "The session key",
          "validAfter": "The start time of the session",
          "validUntil": "The end time of the session"
        }
      },
      "addWhitelistDestination(address,address)": {
        "params": {
          "destination": "The destination to add to the whitelist",
          "sessionKey": "The session key"
        }
      },
      "domainSeparator()": {
        "returns": {
          "domainSeparatorHash": "The EIP-712 domain separator hash for this contract."
        }
      },
      "encodeMessageDataForSafe(address,bytes)": {
        "details": "Returns the pre-image of the message hash (see getMessageHashForSafe).",
        "params": {
          "message": "Message that should be encoded.",
          "safe": "Safe to which the message is targeted."
        },
        "returns": {
          "_0": "Encoded message."
        }
      },
      "executeUserOp(address,uint256,bytes,uint8)": {
        "params": {
          "data": "Data payload of the user operation.",
          "operation": "Operation type of the user operation.",
          "to": "Destination address of the user operation.",
          "value": "Ether value of the user operation."
        }
      },
      "executeUserOpWithErrorString(address,uint256,bytes,uint8)": {
        "params": {
          "data": "Data payload of the user operation.",
          "operation": "Operation type of the user operation.",
          "to": "Destination address of the user operation.",
          "value": "Ether value of the user operation."
        }
      },
      "getMessageHash(bytes)": {
        "details": "Returns the hash of a message to be signed by owners.",
        "params": {
          "message": "Raw message bytes."
        },
        "returns": {
          "_0": "Message hash."
        }
      },
      "getMessageHashForSafe(address,bytes)": {
        "details": "Returns hash of a message that can be signed by owners.",
        "params": {
          "message": "Message that should be hashed.",
          "safe": "Safe to which the message is targeted."
        },
        "returns": {
          "_0": "Message hash."
        }
      },
      "getModules()": {
        "details": "Returns array of first 10 modules.",
        "returns": {
          "_0": "Array of modules."
        }
      },
      "getOperationHash((address,uint256,bytes,bytes,bytes32,uint256,bytes32,bytes,bytes))": {
        "details": "The Safe operation timestamps are pre-pended to the signature bytes as `abi.encodePacked(validAfter, validUntil, signatures)`.",
        "params": {
          "userOp": "The ERC-4337 user operation."
        },
        "returns": {
          "operationHash": "Operation hash."
        }
      },
      "isValidSignature(bytes,bytes)": {
        "details": "Implementation of ISignatureValidator (see `interfaces/ISignatureValidator.sol`)",
        "params": {
          "_data": "Arbitrary length data signed on the behalf of address(msg.sender).",
          "_signature": "Signature byte array associated with _data."
        },
        "returns": {
          "_0": "The EIP-1271 magic value."
        }
      },
      "isValidSignature(bytes32,bytes)": {
        "params": {
          "_dataHash": "Hash of the data signed on the behalf of address(msg.sender)",
          "_signature": "Signature byte array associated with _dataHash"
        },
        "returns": {
          "_0": "Updated EIP1271 magic value if signature is valid, otherwise 0x0"
        }
      },
      "removeWhitelistDestination(address,address)": {
        "params": {
          "destination": "The destination to remove from the whitelist",
          "sessionKey": "The session key"
        }
      },
      "revokeSession(address)": {
        "params": {
          "sessionKey": "The session key"
        }
      },
      "simulate(address,bytes)": {
        "details": "Performs a delegatecall on a targetContract in the context of self. Internally reverts execution to avoid side effects (making it static). Catches revert and returns encoded result as bytes.Inspired by https://github.com/gnosis/util-contracts/blob/bb5fe5fb5df6d8400998094fb1b32a178a47c3a1/contracts/StorageAccessible.sol",
        "params": {
          "calldataPayload": "Calldata that should be sent to the target contract (encoded method name and arguments).",
          "targetContract": "Address of the contract containing the code to execute."
        }
      },
      "supportsInterface(bytes4)": {
        "params": {
          "interfaceId": "Id of the interface."
        },
        "returns": {
          "_0": "if the interface is supported."
        }
      },
      "validateUserOp((address,uint256,bytes,bytes,bytes32,uint256,bytes32,bytes,bytes),bytes32,uint256)": {
        "details": "Must validate caller is the entryPoint.      Must validate the signature and nonce",
        "params": {
          "missingAccountFunds": "- Missing funds on the account's deposit in the entrypoint.                              This is the minimum amount to transfer to the sender(entryPoint) to be                              able to make the call. The excess is left as a deposit in the entrypoint                              for future calls. Can be withdrawn anytime using \"entryPoint.withdrawTo()\".                              In case there is a paymaster in the request (or the current deposit is high                              enough), this value will be zero.",
          "userOp": "- The operation that is about to be executed.",
          "userOpHash": "- Hash of the user's request data. can be used as the basis for signature."
        },
        "returns": {
          "validationData": "      - Packaged ValidationData structure. use `_packValidationData` and                              `_unpackValidationData` to encode and decode.                              <20-byte> sigAuthorizer - 0 for valid signature, 1 to mark signature failure,                                 otherwise, an address of an \"authorizer\" contract.                              <6-byte> validUntil - Last timestamp this operation is valid. 0 for \"indefinite\"                              <6-byte> validAfter - First timestamp this operation is valid                                                    If an account doesn't use time-range, it is enough to                                                    return SIG_VALIDATION_FAILED value (1) for signature failure.                              Note that the validation code cannot use block.timestamp (or block.number) directly."
        }
      }
    },
    "stateVariables": {
      "DOMAIN_SEPARATOR_TYPEHASH": {
        "details": "keccak256(\"EIP712Domain(uint256 chainId,address verifyingContract)\") = 0x47e79534a245952e8b16893a336b85a3d9ea9fa8c573f3d803afb92a79469218"
      },
      "SAFE_OP_TYPEHASH": {
        "details": "When validating the user operation, the signature timestamps are pre-pended to the signature bytes. Equal to: keccak256(     \"SafeOp(address safe,uint256 nonce,bytes initCode,bytes callData,uint128 verificationGasLimit,uint128 callGasLimit,uint256 preVerificationGas,uint128 maxPriorityFeePerGas,uint128 maxFeePerGas,bytes paymasterAndData,uint48 validAfter,uint48 validUntil,address entryPoint)\" ) = 0xc03dfc11d8b10bf9cf703d558958c8c42777f785d998c62060d85a4f0ef6ea7f"
      }
    },
    "title": "Safe4337Module - An extension to the Safe contract that implements the ERC4337 interface.",
    "version": 1
  },
  "userdoc": {
    "errors": {
      "ExecutionFailed()": [
        {
          "notice": "An error indicating that the user operation failed to execute successfully."
        }
      ],
      "InvalidCaller()": [
        {
          "notice": "An error indicating that the caller does not match the Safe in the corresponding user operation."
        }
      ],
      "InvalidEntryPoint()": [
        {
          "notice": "An error indicating that the entry point used when deploying a new module instance is invalid."
        }
      ],
      "InvalidSessionKeyCaller()": [
        {
          "notice": "An error indicating that the caller does not match the Safe in the corresponding user operation."
        }
      ],
      "SessionKeyExecutionFailed()": [
        {
          "notice": "An error indicating that the user operation failed to execute successfully."
        }
      ],
      "UnsupportedEntryPoint()": [
        {
          "notice": "An error indicating that the call validating or executing a user operation was not called by the supported entry point contract."
        }
      ],
      "UnsupportedExecutionFunction(bytes4)": [
        {
          "notice": "An error indicating that the user operation `callData` does not correspond to one of the two supported execution functions: `executeUserOp` or `executeUserOpWithErrorString`."
        }
      ]
    },
    "kind": "user",
    "methods": {
      "SUPPORTED_ENTRYPOINT()": {
        "notice": "The address of the EntryPoint contract supported by this module."
      },
      "addSessionKey(address,uint48,uint48,address[])": {
        "notice": "Create a new session"
      },
      "addWhitelistDestination(address,address)": {
        "notice": "Add a destination to the whitelist"
      },
      "domainSeparator()": {
        "notice": "Computes the 32-byte domain separator used in EIP-712 signature verification for Safe operations."
      },
      "executeUserOp(address,uint256,bytes,uint8)": {
        "notice": "Executes a user operation provided by the entry point."
      },
      "executeUserOpWithErrorString(address,uint256,bytes,uint8)": {
        "notice": "Executes a user operation provided by the entry point and returns error message on failure."
      },
      "getOperationHash((address,uint256,bytes,bytes,bytes32,uint256,bytes32,bytes,bytes))": {
        "notice": "Returns the 32-byte Safe operation hash to be signed by owners for the specified ERC-4337 user operation."
      },
      "isValidSignature(bytes,bytes)": {
        "notice": "Legacy EIP-1271 signature validation method."
      },
      "isValidSignature(bytes32,bytes)": {
        "notice": "Implementation of updated EIP-1271 signature validation method."
      },
      "onERC1155BatchReceived(address,address,uint256[],uint256[],bytes)": {
        "notice": "Handles ERC1155 Token batch callback. return Standardized onERC1155BatchReceived return value."
      },
      "onERC1155Received(address,address,uint256,uint256,bytes)": {
        "notice": "Handles ERC1155 Token callback. return Standardized onERC1155Received return value."
      },
      "onERC721Received(address,address,uint256,bytes)": {
        "notice": "Handles ERC721 Token callback.  return Standardized onERC721Received return value."
      },
      "removeWhitelistDestination(address,address)": {
        "notice": "Remove a destination from the whitelist"
      },
      "revokeSession(address)": {
        "notice": "Revoke a session"
      },
      "supportsInterface(bytes4)": {
        "notice": "Implements ERC165 interface support for ERC1155TokenReceiver, ERC721TokenReceiver and IERC165."
      },
      "tokensReceived(address,address,address,uint256,bytes,bytes)": {
        "notice": "Handles ERC777 Token callback. return nothing (not standardized)"
      },
      "validateUserOp((address,uint256,bytes,bytes,bytes32,uint256,bytes32,bytes,bytes),bytes32,uint256)": {
        "notice": "Validates a user operation provided by the entry point."
      }
    },
    "version": 1
  },
  "storageLayout": {
    "storage": [
      {
        "astId": 9880,
        "contract": "contracts/Safe4337SessionKeysModule.sol:Safe4337SessionKeysModule",
        "label": "whitelistDestinations",
        "offset": 0,
        "slot": "0",
        "type": "t_mapping(t_address,t_mapping(t_address,t_bool))"
      },
      {
        "astId": 9886,
        "contract": "contracts/Safe4337SessionKeysModule.sol:Safe4337SessionKeysModule",
        "label": "sessionKeys",
        "offset": 0,
        "slot": "1",
        "type": "t_mapping(t_address,t_struct(Session)9895_storage)"
      }
    ],
    "types": {
      "t_address": {
        "encoding": "inplace",
        "label": "address",
        "numberOfBytes": "20"
      },
      "t_bool": {
        "encoding": "inplace",
        "label": "bool",
        "numberOfBytes": "1"
      },
      "t_mapping(t_address,t_bool)": {
        "encoding": "mapping",
        "key": "t_address",
        "label": "mapping(address => bool)",
        "numberOfBytes": "32",
        "value": "t_bool"
      },
      "t_mapping(t_address,t_mapping(t_address,t_bool))": {
        "encoding": "mapping",
        "key": "t_address",
        "label": "mapping(address => mapping(address => bool))",
        "numberOfBytes": "32",
        "value": "t_mapping(t_address,t_bool)"
      },
      "t_mapping(t_address,t_struct(Session)9895_storage)": {
        "encoding": "mapping",
        "key": "t_address",
        "label": "mapping(address => struct SessionKeys4337.Session)",
        "numberOfBytes": "32",
        "value": "t_struct(Session)9895_storage"
      },
      "t_struct(Session)9895_storage": {
        "encoding": "inplace",
        "label": "struct SessionKeys4337.Session",
        "members": [
          {
            "astId": 9888,
            "contract": "contracts/Safe4337SessionKeysModule.sol:Safe4337SessionKeysModule",
            "label": "account",
            "offset": 0,
            "slot": "0",
            "type": "t_address"
          },
          {
            "astId": 9890,
            "contract": "contracts/Safe4337SessionKeysModule.sol:Safe4337SessionKeysModule",
            "label": "validAfter",
            "offset": 20,
            "slot": "0",
            "type": "t_uint48"
          },
          {
            "astId": 9892,
            "contract": "contracts/Safe4337SessionKeysModule.sol:Safe4337SessionKeysModule",
            "label": "validUntil",
            "offset": 26,
            "slot": "0",
            "type": "t_uint48"
          },
          {
            "astId": 9894,
            "contract": "contracts/Safe4337SessionKeysModule.sol:Safe4337SessionKeysModule",
            "label": "revoked",
            "offset": 0,
            "slot": "1",
            "type": "t_bool"
          }
        ],
        "numberOfBytes": "64"
      },
      "t_uint48": {
        "encoding": "inplace",
        "label": "uint48",
        "numberOfBytes": "6"
      }
    }
  }
}